:100000000C9455000C9472000C9472000C947200C5
:100010000C9472000C9472000C9472000C94720098
:100020000C9472000C9472000C9472000C94720088
:100030000C9472000C9472000C9472000C94720078
:100040000C9472000C9472000C9472000C94720068
:100050000C9472000C9472000C9472000C94720058
:100060000C9472000C9472000C9472000C94720048
:100070000C9472000C9472000C947200084AD73BE6
:100080003BCE016E84BCBFFDC12F3D6C74319ABD67
:1000900056833DDA3D00C77F11BED9E4BB4C3E918B
:1000A0006BAAAABE000000803F0011241FBECFEF44
:1000B000D8E0DEBFCDBF13E0A0E0B1E0E0EEF6E1B6
:1000C00002C005900D92A03BB107D9F723E0A0EB49
:1000D000B3E001C01D92AD3FB207E1F70E94EA0311
:1000E0000C946E0B0C94000010927C0086E88093B8
:1000F0007A00089510927A00089580917C00807EA5
:1001000080937C0080917C006770682B60937C00FA
:1001100080917A00806480937A0080917A0084FFD5
:10012000FCCF80917A00806180937A0020917800E2
:100130008091790090E0982F8827820F911D089573
:10014000CF93DF93660F771FFB01E050FF4FA08135
:10015000B181645F7E4FFB0120813181880F991F3F
:10016000FC01E050FF4F60817181ED01C61BD70B90
:10017000440F551FFA01E45FFE4F0190F081E02D1E
:10018000E21BF30BCE9FB001CF9F700DDE9F700D71
:100190001124FC01E45FFE4F80819181F901E81B8D
:1001A000F90BCF0140505F4FFA01208131812A1BAA
:1001B0003B0B829FA001839F500D929F500D1124F5
:1001C00081E090E06417750711F490E080E0DF9122
:1001D000CF9108952F923F924F925F926F927F92AC
:1001E0008F929F92AF92BF92CF92DF92EF92FF9247
:1001F0000F931F93CF93DF93CDB7DEB72C970FB636
:10020000F894DEBF0FBECDBF1A8219821C821B82FA
:100210001E821D8218861F821A8619861C861B86DE
:10022000AEE0B1E081E090E0D12CC12C4D915D9128
:10023000F601EE0FFF1FE45FFE4F20813181421770
:10024000530708F46C0101968630910579F7560141
:10025000CE0101964C0144244394512C86E0682E33
:10026000712C1401F501EE0FFF1FE80DF91D5182ED
:100270004082C5010196B3010E947E087C0110E016
:1002800000E0A801B701C5010E94A000029709F48F
:1002900078010F5F1F4F0630110599F7CE14DF0468
:1002A00009F047C0F10190E080E030E020E04191AA
:1002B000519141305105D9F4A901440F551F8A01CC
:1002C00001511C4FBC01645F7E4FDB016D917C913D
:1002D000D8016D937C934D515C4FDC01A050BF4F12
:1002E0006D917C91DA016D937C932F5F3F4F029665
:1002F0008C309105E1F68091B1039091B203AFEE9D
:100300006A2EA3E07A2EA3EEB3E050E040E024177B
:100310003507D9F1F7EDEF2EF3E0FF2E0BEC13E0EC
:10032000F301A080B1808D909C90119770E060E007
:1003300013C0570197CFF701C190D1907F01CA1424
:10034000DB0431F4F801C080D180C814D904B1F0C5
:100350006F5F7F4F0E5F1F4F6817790761F7BC0112
:10036000660F771F8B0109521C4FF801B182A082E2
:1003700065537C4FFB019182808201964F5F5F4FF6
:10038000F2E06F0E711C1296C2CF9093B20380936D
:10039000B10347ED53E0E3EBF3E00BEC13E030E0A7
:1003A00020E028173907C9F42C960FB6F894DEBF61
:1003B0000FBECDBFDF91CF911F910F91FF90EF90B6
:1003C000DF90CF90BF90AF909F908F907F906F9075
:1003D0005F904F903F902F900895DA016D917D913D
:1003E000AD0171836083D8016D917D918D0173831F
:1003F00062832F5F3F4F3496D4CF2F923F924F921C
:100400005F926F927F928F929F92AF92BF92CF92A4
:10041000DF92EF92FF920F931F93CF93DF93CDB7AD
:10042000DEB72E970FB6F894DEBF0FBECDBFE090BB
:10043000B103F090B2031701220C331C93EBC92EC9
:1004400093E0D92EF60150E040E030E020E090E06B
:1004500080E042155305A8F1B7010E947E083B01D8
:10046000C901B7010E947E084B0123EB33E03E87B0
:100470002D87B12CA12CA214B30478F1A7EDB3E021
:100480004BEC53E090E080E0E816F90609F0D9C0A3
:100490002E960FB6F894DEBF0FBECDBFDF91CF9181
:1004A0001F910F91FF90EF90DF90CF90BF90AF9092
:1004B0009F908F907F906F905F904F903F902F9084
:1004C000089560817181860F971F62817381260F65
:1004D000371F4E5F5F4F3496BCCFED85FE85808120
:1004E0009181861997099C0150E040E029833A8365
:1004F0004B835C83CA01B9010E94E3062B018C0186
:10050000ED85FE8582819381881999099C0150E0CF
:1005100040E029833A834B835C83CA01B9010E947E
:10052000E3069201A80169837A838B839C836981A6
:100530007A818B819C810E94E30569837A838B8316
:100540009C8369817A818B819C810E94B406788723
:100550006F8332E0A30EB11C0D851E852501421468
:10056000530438F02D853E852C5F3F4F3E872D8705
:1005700082CFF8010480F581E02DFE83ED83CF0169
:10058000861997099C0150E040E029833A834B8308
:100590005C83CA01B9010E94E30669877A878B8769
:1005A0009C87F80186819781881999099C0150E000
:1005B00040E029833A834B835C83CA01B9010E94DE
:1005C000E30629853A854B855C8569837A838B832D
:1005D0009C8369817A818B819C810E94E305698378
:1005E0007A838B839C8369817A818B819C810E9431
:1005F000B406462F572F8F81988548175907D8F48E
:10060000ED85FE85808191812D813E81318320831E
:10061000F80195838483ED85FE8582819381F801BD
:1006200026813781ED85FE8533832283F801978308
:10063000868358874F83F2E04F0E511C0C5F1F4F8B
:100640008ECFF601208131812D933D93228133811C
:10065000FA0121933193AF010196F4E0CF0ED11C42
:1006600013CF4F925F926F927F928F929F92AF9231
:10067000BF92CF92DF92EF92FF920F931F93CF938F
:10068000DF9300D000D0CDB7DEB7FC018B017A013B
:100690006B015A01712C612C30E020E06E167F0650
:1006A00009F047C0C901B0E0A0E089839A83AB8319
:1006B000BC83B901CD010E94E30620E030E040E0B8
:1006C0005FE369837A838B839C8369817A818B81E1
:1006D0009C810E94A00720E030E048EC52E469834E
:1006E0007A838B839C8369817A818B819C810E9430
:1006F000420669837A838B839C8369817A818B81AB
:100700009C810E94B406CB010F900F900F900F9028
:10071000DF91CF911F910F91FF90EF90DF90CF90DD
:10072000BF90AF909F908F907F906F905F904F9011
:1007300008958FEF681A780AD6018D909D906D010B
:10074000C301BF010E947E08880F991FD5016D91DA
:100750007D915D01D701A80FB91F4D915C91849ED9
:100760002001859E500C949E500C1124800F911FE7
:10077000DC014D915C91649FC001659F900D749F59
:10078000900D1124D201A81BB90B2A0F3B1F86CF55
:100790001092C5008FEC8093C4001092C00088E1D5
:1007A0008093C1008EE08093C20008958091C000C4
:1007B00085FFFCCF8FE59AEE0197F1F700C00000AE
:1007C0006093C60008958091C00087FFFCCF8091A0
:1007D000C6000895CDB7DEB7C859D3400FB6F89418
:1007E000DEBF0FBECDBF80EB93E00E94C80362E086
:1007F00080EB93E00E94D6030E94EA000E94FD0174
:10080000CE018E569C4F27E0E8E4F2E0DC01019037
:100810000D922A95E1F78E010F511E4F28E231E02B
:10082000EFE4F2E0D80101900D9221503040D9F769
:10083000F80101900020E9F79F0121503109790169
:10084000382E292E0E151F0509F024C14BEC53E05C
:1008500067ED73E08091B1039091B2030E94310380
:100860009F938F9388E191E09F938F938E010F5F09
:100870001F4F1F930F930E949D080F900F900F9092
:100880000F900F900F906801F12CE12CF80101906E
:100890000020E9F73197E01BF10BEE16FF0608F494
:1008A00007C16BECE62E63E0F62E77EDC72E73E002
:1008B000D72EB12CA12CFE01E75FFC4F3F01EEE7E4
:1008C0004E2EE1E05E2E4E01F7EA8F1AFCEF9F0AF2
:1008D0008091B1039091B203A816B90608F4F9C04B
:1008E0007F926F9285E891E09F938F931F930F9370
:1008F0000E949D080F900F900F900F900F900F90F7
:100900006801F12CE12CF80101900020E9F7319702
:10091000E01BF10BEE16FF0608F4FEC04FEBE42ED1
:10092000F12C5DEC652E51E0752E3BE7C32ED12CEA
:10093000DF92CF92FF92EF927F926F921F930F936D
:100940000E949D080FB6F894DEBF0FBECDBF4801D0
:10095000B12CA12CF80101900020E9F73197E01BA0
:10096000F10BAE16BF0608F4E8C0EEE6CE0ED11CC1
:10097000F3E3CF16F2E0DF06D9F62EE6E20EF11C25
:100980003FE2E31634E0F30681F67E0147EAE41A1B
:100990004CEFF40A89E3E7E7F3E0D70101900D9209
:1009A0008A95E1F75701D12CC12CF7010190002065
:1009B000E9F73197EE19FF09CE16DF0608F4CEC02D
:1009C00080E0E82E81E0F82E9CE0C92E91E0D92E3F
:1009D00029EF622E21E0722EF70120813181F2E0B1
:1009E000EF0EF11CF60180819181F2E0CF0ED11C57
:1009F0003F932F939F938F937F926F921F930F93A9
:100A00000E949D080FB6F894DEBF0FBECDBF48010F
:100A1000B12CA12CF80101900020E9F73197E01BDF
:100A2000F10BAE16BF0608F4AAC0ECE0EE16E1E04A
:100A3000FE0691F6032D122D7801F6E0EF0EF11C63
:100A4000F80161918F0180EB93E00E94D6038FE063
:100A500097E20197F1F700C00000E016F10681F778
:100A600063E080EB93E00E94D603EFE0F7E231977A
:100A7000F1F700C0000064E080EB93E00E94D60331
:100A800090E080E0C856DC4F0FB6F894DEBF0FBE92
:100A9000CDBF08958FE097E20197F1F700C0000005
:100AA000F80161918F0180EB93E00E94D603CACEDA
:100AB000F60161916F0180EB93E00E94D6038FE015
:100AC00097E20197F1F700C000009FEFE91AF90AD9
:100AD000DDCEF70120813181F2E0EF0EF11CF6014D
:100AE00080819181F2E0CF0ED11C3F932F939F9391
:100AF0008F935F924F929F928F920E949D08B401B4
:100B0000C3010E9492082FEFA21AB20A0FB6F894FE
:100B1000DEBF0FBECDBFDCCEF60161916F0180EB71
:100B200093E00E94D6038FE097E20197F1F700C0AF
:100B300000009FEFE91AF90AE6CEF40161914F0136
:100B400080EB93E00E94D6038FE097E20197F1F7E4
:100B500000C000009FEFA91AB90AFCCEF50161910F
:100B60005F0180EB93E00E94D6038FE097E201974C
:100B7000F1F700C000009FEFC91AD90A16CFF4019F
:100B800061914F0180EB93E00E94D6038FE097E2E2
:100B90000197F1F700C000009FEFA91AB90A3ACFF8
:100BA0000E94500760F080E891E009F49EEF0E94F7
:100BB000570728F040E851E071F45EEF0CC00C9448
:100BC00026070C949107E92FE0780E946F0740F305
:100BD000092E052AB1F3261737074807590738F0B9
:100BE0000E2E07F8E02569F0E025E0640AC0EF6307
:100BF00007F8009407FADB01B9019D01DC01CA0185
:100C0000AD01EF930E9459060E945E070E941306F1
:100C10005F91552339F02BED3FE049E450FD49EC5D
:100C20000C9412080895DF93DD27B92FBF7740E8B1
:100C30005FE31616170648075B0718F4D92F0E94C2
:100C400098079F938F937F936F930E940D08ECE713
:100C5000F0E00E9429070E945E072F913F914F917B
:100C60005F910E94B307DD2351F09058A2EA2AED6C
:100C70003FE049EC5FE3D0785D270E942908DF91CF
:100C80000C945E070E9456060C945E070E9457075C
:100C900058F00E94500740F029F45F3F29F00C946F
:100CA000200751110C9492070C9426070E946F079D
:100CB00068F39923B1F3552391F3951B550BBB278B
:100CC000AA2762177307840738F09F5F5F4F220FD0
:100CD000331F441FAA1FA9F335D00E2E3AF0E0E8C7
:100CE00032D091505040E695001CCAF72BD0FE2F11
:100CF00029D0660F771F881FBB1F261737074807A5
:100D0000AB07B0E809F0BB0B802DBF01FF2793585C
:100D10005F4F3AF09E3F510578F00C9420070C94F9
:100D200092075F3FE4F3983ED4F3869577956795F5
:100D3000B795F7959F5FC9F7880F911D9695879591
:100D400097F90895E1E0660F771F881FBB1F6217B0
:100D500073078407BA0720F0621B730B840BBA0B6E
:100D6000EE1F88F7E09508950E94770788F09F5757
:100D700098F0B92F9927B751B0F0E1F0660F771FBF
:100D8000881F991F1AF0BA95C9F714C0B13091F0B5
:100D90000E949107B1E008950C949107672F782F76
:100DA0008827B85F39F0B93FCCF38695779567957A
:100DB000B395D9F73EF490958095709561957F4FE6
:100DC0008F4F9F4F0895E89409C097FB3EF490958C
:100DD0008095709561957F4F8F4F9F4F9923A9F014
:100DE000F92F96E9BB279395F695879577956795A3
:100DF000B795F111F8CFFAF4BB0F11F460FF1BC0E7
:100E00006F5F7F4F8F4F9F4F16C0882311F096E979
:100E100011C0772321F09EE8872F762F05C0662327
:100E200071F096E8862F70E060E02AF09A95660FE0
:100E3000771F881FDAF7880F9695879597F9089599
:100E400097F99F6780E870E060E008959FEF80EC7D
:100E50000895DF93CF931F930F93FF92EF92DF924A
:100E60007B018C01689406C0DA2EEF010E94B30763
:100E7000FE01E894A5912591359145915591A6F3F0
:100E8000EF010E942908FE019701A801DA9469F791
:100E9000DF90EF90FF900F911F91CF91DF91089518
:100EA00000240A9416161706180609060895002449
:100EB0000A9412161306140605060895092E0394C3
:100EC000000C11F4882352F0BB0F40F4BF2B11F437
:100ED00060FF04C06F5F7F4F8F4F9F4F089557FD96
:100EE0009058440F551F59F05F3F71F04795880F98
:100EF00097FB991F61F09F3F79F08795089512162F
:100F000013061406551FF2CF4695F1DF08C01616DA
:100F100017061806991FF1CF86957105610508948B
:100F20000895E894BB2766277727CB0197F90895A2
:100F30009B01AC0160E070E080E89FE30C94420606
:100F40000E94B3070C945E070E94500738F00E947D
:100F5000570720F0952311F00C9420070C942607D6
:100F600011240C9492070E946F0770F3959FC1F3B0
:100F7000950F50E0551F629FF001729FBB27F00D47
:100F8000B11D639FAA27F00DB11DAA1F649F66279C
:100F9000B00DA11D661F829F2227B00DA11D621FEB
:100FA000739FB00DA11D621F839FA00D611D221FA5
:100FB000749F3327A00D611D231F849F600D211D89
:100FC000822F762F6A2F11249F5750409AF0F1F00C
:100FD00088234AF0EE0FFF1FBB1F661F771F881F75
:100FE00091505040A9F79E3F510580F00C94200786
:100FF0000C9492075F3FE4F3983ED4F3869577957F
:101000006795B795F795E7959F5FC1F7FE2B880F1A
:10101000911D9695879597F908959B01AC010C94C5
:10102000A0075058BB27AA270E9429080C945E07E6
:101030000E94500738F00E94570720F039F49F3F74
:1010400019F426F40C9426070EF4E095E7FB0C94B3
:101050002007E92F0E946F0758F3BA17620773073A
:101060008407950720F079F4A6F50C9491070EF407
:10107000E0950B2EBA2FA02D0B01B90190010C01A8
:10108000CA01A0011124FF27591B99F0593F50F4C0
:10109000503E68F11A16F040A22F232F342F442718
:1010A000585FF3CF469537952795A795F040539510
:1010B000C9F77EF41F16BA0B620B730B840BBAF0E0
:1010C0009150A1F0FF0FBB1F661F771F881FC2F74B
:1010D0000EC0BA0F621F731F841F48F4879577955F
:1010E0006795B795F7959E3F08F0B0CF9395880F19
:1010F00008F09927EE0F979587950895AA1BBB1BBB
:1011000051E107C0AA1FBB1FA617B70710F0A61B07
:10111000B70B881F991F5A95A9F780959095BC0128
:10112000CD010895FB01DC010D900020E9F7119736
:1011300001900D920020E1F70895AEE0B0E0E3EAFF
:10114000F8E00C94450B0D891E8986E08C831A8388
:1011500009838FEF9FE79E838D83AE01475E5F4FCC
:101160006F89788DCE0101960E94C0082F81388545
:10117000020F131FF80110822E96E4E00C94610B0D
:10118000AFE0B0E0E6ECF8E00C94370B7C013B01FB
:101190008A01DC0117961C921E92169713968C9169
:1011A00081FFBEC19AE0292EFE0131964F01D70181
:1011B00013969C91F30193FD859193FF81913F01DB
:1011C000882309F444C1853239F493FD859193FF56
:1011D00081913F01853229F4B70190E00E94A90A6C
:1011E000E6CFB12C412C512CBFE1B51538F08B3234
:1011F00009F188F4803201F1833221F157FC3AC0C1
:1012000020ED280F2A3040F556FE1FC0B29C200D5D
:101210001124B22E06C08D3291F0803379F7689494
:1012200050F8F30193FD859193FF81913F01811166
:10123000DBCF20C0689451F8689452F8F2CF6894DC
:1012400053F8EFCF689454F8ECCF429C200D112452
:10125000422E689455F8E5CF8E3229F456FCF7C03B
:10126000689456F8DECF8C3619F4689457F8D9CFC5
:101270008836B9F2982F9F7D95549330C0F083360D
:1012800081F18337A1F1833509F05BC0D801CD909E
:10129000DD908D016B2D70E056FC02C06FEF7FEF8B
:1012A000C6010E94930A5C01689457F80AC00C5F5B
:1012B0001F4FEFE3E983AA24A394B12C6401E894BF
:1012C00057F853FE29C0342CA114B10451F5332032
:1012D00009F46DCFB70180E290E00E94A90A3A9428
:1012E000F6CFD8018C9189830E5F1F4FE4CFF801B0
:1012F000C190D1908F016B2D70E056FC02C06FEF52
:101300007FEFC6010E949E0A5C01D9CFB70180E23F
:1013100090E00E94A90A4A944A141B0409F0B0F70D
:10132000D2CFF60157FC859157FE81916F01B7012D
:1013300090E00E94A90A31103A94B1E0AB1AB108CA
:10134000C3CF843619F0893609F071C0F80157FE11
:1013500067C061917191819191918F01E52DEF7637
:10136000DE2E97FF09C090958095709561957F4F0F
:101370008F4F9F4F6894D7F82AE030E0A4010E9475
:10138000D90AC82EC818AC2C5D2CD6FE0CC0E89427
:1013900050F8CB1440F4D4FE05C0D2FC03C05D2D40
:1013A0005E7E552EAB2C54FE93C0FE01EC0DF11D5C
:1013B0008081803309F085C0652D697E562E752D9C
:1013C0007870372E53FC93C050FE8DC0BC2CA414F3
:1013D00010F4B40CBA1854FE90C0B70180E390E04A
:1013E0000E94A90A52FE07C088E751FC88E590E0F8
:1013F000B7010E94A90ACB1408F48BC0CA94D12C5F
:101400008FEFC81AD80AC80CD91CD6018E916D016D
:10141000B70190E00E94A90A8C149D04B1F757CF40
:1014200061917191072E000C880B990B96CFD52CEA
:10143000E894D4F82AE0853729F1F52DF97FDF2EDD
:101440008037A1F058F48835A1F08F36D1F0F7013C
:10145000868197812F96E2E10C94530B8837B9F778
:10146000D4FE02C06894D2F820E10CC06894D4F88D
:10147000F7CF54FE03C02F2F2660D22E20E132E09A
:1014800002C028E030E0F801D7FE15C0419151912B
:10149000619171914C875D876E877F878F01A40171
:1014A0006C857D858E859F850E94D90AC82EC818B7
:1014B000E894D7F868CF81919191AC0170E060E039
:1014C000E9CF52FC02C0A3947ACFA394A39477CF20
:1014D000852D867809F473CFF6CFB70180E290E0CE
:1014E0000E94A90AA394A414C0F3312C74CF342C05
:1014F0003A18A41408F46FCFF8CF852D867809F434
:101500007ACF8BE251FE80E257FC8DE2B70190E08A
:1015100070CFB70180E390E00E94A90ABA946BCF24
:101520008FEF9FEF97CFFC01059061507040011045
:10153000D8F7809590958E0F9F1F0895FC016150FC
:10154000704001900110D8F7809590958E0F9F1FE5
:1015500008950F931F93CF93DF93182F092FEB015B
:101560008B8181FD09C01FEF0FEF812F902FDF913D
:10157000CF911F910F91089582FF14C02E813F815A
:101580008C819D81281739073CF4E881F981CF01CE
:1015900001969983888310838E819F8101969F8312
:1015A0008E83E3CFE885F985812F0995892BA1F3F7
:1015B000DACFFA01AA27283051F1203181F1E894DD
:1015C0006F936E7F6E5F7F4F8F4F9F4FAF4FB1E036
:1015D0003ED0B4E03CD0670F781F891F9A1FA11D31
:1015E000680F791F8A1F911DA11D6A0F711D811D32
:1015F000911DA11D20D009F468943F912AE0269FF7
:1016000011243019305D3193DEF6CF010895462F55
:101610004770405D4193B3E00FD0C9F7F6CF462F36
:101620004F70405D4A3318F0495D31FD405241939F
:1016300002D0A9F7EACFB4E0A6959795879577955C
:101640006795BA95C9F700976105710508959B01E3
:10165000AC010A2E06945795479537952795BA956C
:10166000C9F7620F731F841F951FA01D08952F9245
:101670003F924F925F926F927F928F929F92AF9222
:10168000BF92CF92DF92EF92FF920F931F93CF936F
:10169000DF93CDB7DEB7CA1BDB0B0FB6F894DEBF06
:1016A0000FBECDBF09942A88398848885F846E842C
:1016B0007D848C849B84AA84B984C884DF80EE8076
:1016C000FD800C811B81AA81B981CE0FD11D0FB67F
:1016D000F894DEBF0FBECDBFED010895F894FFCFA3
:1016E000E9007B00E9005701E9007B009C010A0248
:1016F0002E012E0178022E013C7465787420783D0D
:101700002239362220793D223536342220666F6E0A
:10171000742D66616D696C793D22617269616C221C
:1017200020666F6E742D73697A653D2232302220F7
:1017300066696C6C3D22626C7565223E414952457A
:101740003A202225642220706F75636573206361DF
:1017500072726565733C2F746578743E0A00256467
:101760002C256420003C706F6C79676F6E20706F61
:10177000696E74733D22257322207374796C653D04
:101780002266696C6C3A677265656E3B7374726F42
:101790006B653A626C61636B3B7374726F6B652D42
:1017A00077696474683A3322202F3E0A003C7265E0
:1017B000637420783D2225642220793D222564220D
:1017C0002077696474683D223522206865696768FE
:1017D000743D2235222F3E0A003C636972636C65BA
:1017E0002063783D222564222063793D22256422EE
:1017F00020723D22313022207374726F6B653D225E
:10180000626C61636B22207374726F6B652D7769F4
:101810006474683D2234222066696C6C3D226772D4
:10182000657922202F3E0A003C2F7376673E003CEC
:1018300073766720786D6C6E733D22687474703AAD
:101840002F2F7777772E77332E6F72672F323030C6
:10185000302F737667222077696474683D223130B7
:10186000302522206865696768743D223130302553
:10187000222076696577426F783D22302030203112
:1018800031353220353736223E0A3C746578742073
:10189000783D2237362220793D2233362220666F6A
:1018A0006E742D66616D696C793D22617269616C3F
:1018B0002220666F6E742D73697A653D223235225F
:1018C0002066696C6C3D22626C7565223E20536512
:1018D0006374696F6E203035202D2D204571756938
:1018E00070652033353336202D2D2042696E324409
:1018F00065633C2F746578743E0A3C72656374209E
:10190000783D2239362220793D22343822207769E9
:101910006474683D223936302220686569676874CE
:101920003D2234383022207374726F6B653D226221
:101930006C61636B22207374726F6B652D776964C1
:1019400074683D2231222066696C6C3D227768699B
:101950007465222F3E0A003C7265637420783D2234
:101960003139312220793D223435332220776964A0
:1019700074683D223522206865696768743D2235A8
:10198000222066696C6C3D22726564222F3E0A003B
:00000001FF
